:100000000C9463000C948B000C948B000C948B006C
:100010000C948B000C948B000C948B000C948B0034
:100020000C948B000C948B000C948B000C948B0024
:100030000C948B000C948B000C948B000C948B0014
:100040000C94E6020C948B000C94B4020C948E0277
:100050000C948B000C948B000C948B000C948B00F4
:100060000C948B000C948B000000000024002700EF
:100070002A0000000000250028002B0000000000DE
:1000800023002600290004040404040404040202DA
:100090000202020203030303030301020408102007
:1000A0004080010204081020010204081020000012
:1000B0000008000201000003040700000000000027
:1000C000000030034D0511241FBECFEFD8E0DEBF86
:1000D000CDBF22E0A0E6B1E001C01D92A031B20781
:1000E000E1F711E0A0E0B1E0E6E3FFE002C0059037
:1000F0000D92A036B107D9F710E0C2E6D0E004C0F7
:100100002197FE010E948D05C136D107C9F70E94D3
:10011000A4030C948E070C940000AF92BF92CF9270
:10012000DF92EF92FF920F931F93CF93DF936C01B7
:100130007B018B01040F151FEB015E01AE18BF0898
:10014000C017D10759F06991D601ED91FC9101904A
:10015000F081E02DC6010995892B79F7C501DF9162
:10016000CF911F910F91FF90EF90DF90CF90BF90B4
:10017000AF900895FC01538D448D252F30E0842FDE
:1001800090E0821B930B541710F0CF9608950197BF
:100190000895FC01918D828D981761F0A28DAE0FAC
:1001A000BF2FB11D5D968C91928D9F5F9F73928F33
:1001B00090E008958FEF9FEF0895FC01918D828D5F
:1001C000981731F0828DE80FF11D858D90E008952C
:1001D0008FEF9FEF0895FC01918D228D892F90E084
:1001E000805C9F4F821B91098F739927089589E640
:1001F00091E00E94EB0021E0892B09F420E0822F9E
:10020000089580E090E0892B29F00E94F700811189
:100210000C9400000895FC01A48DA80FB92FB11D06
:10022000A35ABF4F2C91848D90E001968F7399272C
:10023000848FA689B7892C93A089B1898C9183700A
:1002400080648C93938D848D981306C00288F38903
:10025000E02D80818F7D80830895EF92FF920F9330
:100260001F93CF93DF93EC0181E0888F9B8D8C8D62
:1002700098131AC0E889F989808185FF15C09FB756
:10028000F894EE89FF896083E889F9898081837019
:10029000806480839FBF81E090E0DF91CF911F91C8
:1002A0000F91FF90EF900895F62E0B8D10E00F5FE9
:1002B0001F4F0F731127E02E8C8D8E110CC00FB6BF
:1002C00007FCFACFE889F989808185FFF5CFCE0157
:1002D0000E940B01F1CFEB8DEC0FFD2FF11DE35AC6
:1002E000FF4FF0829FB7F8940B8FEA89FB898081DA
:1002F0008062CFCFCF93DF93EC01888D8823B9F054
:10030000AA89BB89E889F9898C9185FD03C0808120
:1003100086FD0DC00FB607FCF7CF8C9185FFF2CF9D
:10032000808185FFEDCFCE010E940B01E9CFDF91E7
:10033000CF910895833081F028F4813099F0823094
:10034000A9F008958730A9F08830C9F08430B1F45D
:10035000809180008F7D03C0809180008F77809393
:100360008000089584B58F7784BD089584B58F7D0E
:10037000FBCF8091B0008F778093B000089580917B
:10038000B0008F7DF9CF1F93CF93DF93282F30E0FC
:10039000F901E255FF4F8491F901E656FF4FD491E0
:1003A000F901EA57FF4FC491CC23A9F0162F811110
:1003B0000E949A01EC2FF0E0EE0FFF1FEE58FF4F66
:1003C000A591B4918FB7F894EC91111108C0D09514
:1003D000DE23DC938FBFDF91CF911F910895DE2B39
:1003E000F8CFCF93DF9390E0FC01E656FF4F2491C6
:1003F0008A579F4FFC0184918823D1F090E0880FA9
:10040000991FFC01E859FF4FA591B491FC01EE58EA
:10041000FF4FC591D49161110EC09FB7F8948C9194
:10042000E22FE0958E238C932881E223E8839FBFFF
:10043000DF91CF9108958FB7F894EC91E22BEC9374
:100440008FBFF6CF3FB7F894809165019091660118
:10045000A0916701B091680126B5A89B05C02F3F08
:1004600019F00196A11DB11D3FBFBA2FA92F982FDA
:100470008827BC01CD01620F711D811D911D42E0D5
:10048000660F771F881F991F4A95D1F7089520910D
:100490000A0230910B02232B39F421E0FC01808108
:1004A000882361F020E00AC0BC018091060290918F
:1004B00007020E947E0721E0892BA1F7822F089571
:1004C000CF93DF93EC018091060290910702009791
:1004D00059F020910802309109022C173D0720F0B5
:1004E00081E0DF91CF910895BE016F5F7F4F0E9441
:1004F000B806009789F09093070280930602D09384
:100500000902C093080220910A0230910B02232BAA
:1005100039F7FC011082E4CF80E0E3CF1F920F9205
:100520000FB60F9211242F933F934F935F936F93C6
:100530007F938F939F93AF93BF93EF93FF9389E63E
:1005400091E00E940B01FF91EF91BF91AF919F91BC
:100550008F917F916F915F914F913F912F910F906C
:100560000FBE0F901F9018951F920F920FB60F920B
:1005700011242F938F939F93EF93FF93E091790131
:10058000F0917A018081E0917F01F091800182FDFC
:100590001BC09081809182018F5F8F7320918301B6
:1005A000821741F0E0918201F0E0E759FE4F958F0C
:1005B00080938201FF91EF919F918F912F910F90E6
:1005C0000FBE0F901F9018958081F4CF1F920F924D
:1005D0000FB60F9211242F933F938F939F93AF9356
:1005E000BF938091610190916201A0916301B091EC
:1005F00064013091600123E0230F2D3758F50196F7
:10060000A11DB11D2093600180936101909362014F
:10061000A0936301B093640180916501909166019C
:10062000A0916701B09168010196A11DB11D809351
:10063000650190936601A0936701B0936801BF9133
:10064000AF919F918F913F912F910F900FBE0F907F
:100650001F90189526E8230F0296A11DB11DD2CF39
:1006600010926C0110926B0188EE93E0A0E0B0E074
:1006700080936D0190936E01A0936F01B093700110
:100680008AE091E090936A018093690185EC90E0A3
:10069000909376018093750184EC90E090937801BB
:1006A0008093770180EC90E090937A0180937901B8
:1006B00081EC90E090937C0180937B0182EC90E050
:1006C00090937E0180937D0186EC90E09093800171
:1006D00080937F0110928201109283011092840115
:1006E00010928501109207021092060210920902E0
:1006F0001092080210920B0210920A0290E080E021
:100700000E9460022091060230910702811113C0FD
:100710002115310519F0C9010E942F061092070218
:100720001092060210920B0210920A021092090215
:1007300010920802089510920B0210920A026AE1C8
:1007400071E0C9010C948707CF93DF9300D0CDB738
:10075000DEB7789484B5826084BD84B5816084BD41
:1007600085B5826085BD85B5816085BD80916E004F
:10077000816080936E001092810080918100826080
:1007800080938100809181008160809381008091BD
:1007900080008160809380008091B10084608093AC
:1007A000B1008091B00081608093B00080917A00A8
:1007B000846080937A0080917A00826080937A00CE
:1007C00080917A00816080937A0080917A008068BD
:1007D00080937A001092C100E0917901F0917A0142
:1007E00082E08083E0917501F09176011082E091C2
:1007F0007701F09178018FEC808310928101E09174
:100800007D01F0917E0186E08083E0917B01F09193
:100810007C01808180618083E0917B01F0917C018B
:10082000808188608083E0917B01F0917C018081F0
:1008300080688083E0917B01F0917C0180818F7DD5
:10084000808361E086E00E94F10161E085E00E9422
:10085000F10161E084E00E94F10160E08AE00E9421
:10086000F10128EB222E20E0322E04EA10E030E9DC
:10087000E32E30E0F32E40E0C42E40E0D42E89E693
:1008800091E00E94EB00892B09F44AC00E942202E9
:100890002B013C0193E0892E912CA12CB12C0E94BC
:1008A00022026419750986099709683E734081051B
:1008B0009105A8F321E0821A9108A108B10888EEF9
:1008C000480E83E0581E611C711C81149104A10420
:1008D000B10429F789E691E00E94C90089831A8250
:1008E000A0900A02B0900B02FFEFAF1ABF0AC50139
:1008F0000E946002882319F22091060230910702BB
:1009000080910A0290910B02BE016F5F7F4F820FB0
:10091000931F0E948707B0920B02A0920A02AFCFEA
:10092000F1018491F801B490F701A490AA20D1F0CC
:1009300081110E949A01EA2DF0E0EE0FFF1FE458AA
:10094000FF4FA591B4918C91B82261F061E084E0F1
:100950000E94C30161E085E00E94C30161E086E07E
:100960000E94C30140910A0250910B0241155105AA
:1009700009F44EC0609106027091070289E691E089
:100980000E948D0042E050E068E171E089E691E06C
:100990000E948D008BE191E00E944702882319F0AC
:1009A00061E086E017C084E291E00E94470288235C
:1009B00011F060E0F6CF8EE291E00E94470261E024
:1009C000811107C085E391E00E944702882361F10D
:1009D00060E085E00E94C30190E080E00E94600238
:1009E000209106023091070281114DC02115310579
:1009F00019F0C9010E942F061092070210920602F8
:100A000010920B0210920A02109209021092080230
:100A1000C114D10409F433CF0E94F700882309F4EC
:100A20002ECF0E9400002BCF8DE391E00E94470261
:100A300061E0811107C086E491E00E9447028823AB
:100A400019F060E084E0C6CF80E591E00E944702A3
:100A5000882349F061E084E00E94C30161E085E001
:100A60000E94C3019DCF87E591E00E944702882341
:100A700009F4B2CF60E084E00E94C30160E085E049
:100A80000E94C30196CF10920B0210920A026AE1F3
:100A900071E0C9010E948707BBCF80910602909147
:100AA0000702009711F00C942F0608952F923F92A1
:100AB0004F925F926F927F928F929F92AF92BF926E
:100AC000CF92DF92EF92FF920F931F93CF93DF931A
:100AD000CDB7DEB7CA1BDB0B0FB6F894DEBF0FBE77
:100AE000CDBF09942A88398848885F846E847D84C4
:100AF0008C849B84AA84B984C884DF80EE80FD80C6
:100B00000C811B81AA81B981CE0FD11D0FB6F8943B
:100B1000DEBF0FBECDBFED010895EE0FFF1F0590A4
:100B2000F491E02D09940F931F93CF93DF938230BC
:100B3000910510F482E090E0E0910E02F0910F0236
:100B400030E020E0B0E0A0E0309799F421153105C5
:100B500009F44AC0281B390B24303105D8F58A81A5
:100B60009B816115710589F1FB0193838283FE01ED
:100B700011C0408151810281138148175907E0F06B
:100B80004817590799F4109761F012960C93129731
:100B900013961C933296CF01DF91CF911F910F9145
:100BA000089500930E0210930F02F4CF2115310522
:100BB00051F04217530738F0A901DB019A01BD013A
:100BC000DF01F801C1CFEF01F9CF90930F028093BD
:100BD0000E02CDCFFE01E20FF31F819391932250BD
:100BE000310939832883D7CF20910C0230910D022F
:100BF000232B41F4209102013091030130930D0227
:100C000020930C0220910001309101012115310542
:100C100041F42DB73EB74091040150910501241BCA
:100C2000350BE0910C02F0910D02E217F307A0F4EE
:100C30002E1B3F0B2817390778F0AC014E5F5F4F32
:100C40002417350748F04E0F5F1F50930D02409355
:100C50000C02819391939FCFF0E0E0E09CCFCF9383
:100C6000DF930097E9F0FC01329713821282A09182
:100C70000E02B0910F02ED0130E020E01097A1F4D8
:100C800020813181820F931F20910C0230910D023F
:100C90002817390709F061C0F0930D02E0930C02A8
:100CA000DF91CF910895EA01CE17DF07E8F54A8179
:100CB0005B819E0141155105B1F7E901FB83EA8390
:100CC00049915991C40FD51FEC17FD0761F480813C
:100CD00091810296840F951FE9019983888382810F
:100CE00093819B838A83F0E0E0E012968D919C9142
:100CF00013970097B9F52D913C911197CD0102966C
:100D0000820F931F20910C0230910D022817390792
:100D100039F6309751F510920F0210920E02B093EF
:100D20000D02A0930C02BCCFD383C28340815181BA
:100D3000840F951FC817D90761F44E5F5F4F8881F4
:100D40009981480F591F518340838A819B819383E6
:100D500082832115310509F0B0CFF0930F02E093A3
:100D60000E029ECFFD01DC01C0CF13821282D7CFCD
:100D7000B0E0A0E0EEEBF6E00C9458058C01009793
:100D800051F4CB010E9493058C01C801CDB7DEB7A9
:100D9000E0E10C947405FC01E60FF71F9C01225062
:100DA0003109E217F30708F49DC0D901CD91DC9118
:100DB0001197C617D70798F0C530D10530F3CE018B
:100DC00004978617970708F3C61BD70B2297C19382
:100DD000D1936D937C93CF010E942F06D6CF5B01F8
:100DE000AC1ABD0A4C018C0E9D1EA0910E02B09152
:100DF0000F02512C412CF12CE12C109731F58091F0
:100E00000C0290910D028815990509F05CC04616F8
:100E1000570608F058C08091000190910101009799
:100E200041F48DB79EB74091040150910501841B98
:100E3000950BE817F90708F055C0F0930D02E09301
:100E40000C02F90171836083A0CF8D919C91119761
:100E500012966C90129713967C901397A815B9056B
:100E600059F56C0142E0C40ED11CCA14DB0420F118
:100E7000AC014A195B09DA011296159780F062827B
:100E8000738251834083D9016D937C93E114F10403
:100E900071F0D7011396FC93EE93129776CF2296BA
:100EA0008C0F9D1FF90191838083F301EFCFF093A5
:100EB0000F02E0930E0269CF4816590608F42C0180
:100EC0007D01D3019ACFCB010E9493057C0100974D
:100ED00049F0AE01B8010E947507C8010E942F06B3
:100EE000870153CF10E000E050CFFB01DC0102C0CE
:100EF00001900D9241505040D8F70895FB01DC015C
:100F00008D91019080190110D9F3990B0895FB017F
:100F1000DC0101900D920020E1F7089510E0C2E697
:100F2000D0E004C0FE010E948D052196C336D10792
:060F3000C9F7F894FFCFA1
:100F3600000010028000000000002D018D00BA00A4
:100F46007A01EB00C900DD000D0A006C6967687460
:100F5600206F6E006C69676874206F666600666154
:100F66006E206F6E0066616E206F6666006D6F7430
:100F76006F72206F6E006D6F746F72206F66660001
:100F8600616C6C206F6E00616C6C206F6666000091
:00000001FF
